{
    "_format": "hh-sol-artifact-1",
    "contractName": "LCMarketPlace",
    "sourceName": "contracts/LCMarketPlace.sol",
    "abi": [
        {
            "inputs": [
                {
                    "internalType": "address",
                    "name": "nftCreation",
                    "type": "address"
                }
            ],
            "stateMutability": "nonpayable",
            "type": "constructor"
        },
        {
            "anonymous": false,
            "inputs": [
                {
                    "indexed": false,
                    "internalType": "uint256",
                    "name": "tokenId",
                    "type": "uint256"
                },
                {
                    "indexed": false,
                    "internalType": "uint256",
                    "name": "qty",
                    "type": "uint256"
                },
                {
                    "indexed": false,
                    "internalType": "address",
                    "name": "buyer",
                    "type": "address"
                },
                {
                    "indexed": false,
                    "internalType": "uint256",
                    "name": "tokenPrice",
                    "type": "uint256"
                },
                {
                    "indexed": false,
                    "internalType": "address",
                    "name": "tokenOwner",
                    "type": "address"
                },
                {
                    "components": [
                        {
                            "internalType": "uint256",
                            "name": "tokenId",
                            "type": "uint256"
                        },
                        {
                            "internalType": "address",
                            "name": "buyer",
                            "type": "address"
                        },
                        {
                            "internalType": "address",
                            "name": "seller",
                            "type": "address"
                        },
                        {
                            "internalType": "uint256",
                            "name": "totalPrice",
                            "type": "uint256"
                        },
                        {
                            "internalType": "uint256",
                            "name": "qty",
                            "type": "uint256"
                        },
                        {
                            "internalType": "uint256",
                            "name": "time",
                            "type": "uint256"
                        }
                    ],
                    "indexed": false,
                    "internalType": "struct LCMarketPlace.orderDetails",
                    "name": "newOrder",
                    "type": "tuple"
                }
            ],
            "name": "BuyToken",
            "type": "event"
        },
        {
            "anonymous": false,
            "inputs": [
                {
                    "indexed": false,
                    "internalType": "uint256",
                    "name": "tokenId",
                    "type": "uint256"
                },
                {
                    "indexed": false,
                    "internalType": "bool",
                    "name": "isSold",
                    "type": "bool"
                }
            ],
            "name": "ChangeSaleTokenStatus",
            "type": "event"
        },
        {
            "anonymous": false,
            "inputs": [
                {
                    "indexed": false,
                    "internalType": "uint256",
                    "name": "tokenId",
                    "type": "uint256"
                },
                {
                    "indexed": false,
                    "internalType": "uint256",
                    "name": "price",
                    "type": "uint256"
                },
                {
                    "indexed": false,
                    "internalType": "uint256",
                    "name": "qty",
                    "type": "uint256"
                },
                {
                    "indexed": false,
                    "internalType": "address",
                    "name": "tokenOwner",
                    "type": "address"
                }
            ],
            "name": "PutTokenOnSale",
            "type": "event"
        },
        {
            "anonymous": false,
            "inputs": [
                {
                    "indexed": false,
                    "internalType": "uint256",
                    "name": "tokenId",
                    "type": "uint256"
                },
                {
                    "indexed": false,
                    "internalType": "address",
                    "name": "tokenOwner",
                    "type": "address"
                },
                {
                    "indexed": false,
                    "internalType": "bool",
                    "name": "isOnSale",
                    "type": "bool"
                }
            ],
            "name": "RemoveTokenFromSale",
            "type": "event"
        },
        {
            "inputs": [
                {
                    "internalType": "uint256",
                    "name": "tokenId",
                    "type": "uint256"
                },
                {
                    "internalType": "uint256",
                    "name": "_qty",
                    "type": "uint256"
                }
            ],
            "name": "buyToken",
            "outputs": [
                {
                    "components": [
                        {
                            "internalType": "uint256",
                            "name": "tokenId",
                            "type": "uint256"
                        },
                        {
                            "internalType": "address",
                            "name": "buyer",
                            "type": "address"
                        },
                        {
                            "internalType": "address",
                            "name": "seller",
                            "type": "address"
                        },
                        {
                            "internalType": "uint256",
                            "name": "totalPrice",
                            "type": "uint256"
                        },
                        {
                            "internalType": "uint256",
                            "name": "qty",
                            "type": "uint256"
                        },
                        {
                            "internalType": "uint256",
                            "name": "time",
                            "type": "uint256"
                        }
                    ],
                    "internalType": "struct LCMarketPlace.orderDetails",
                    "name": "",
                    "type": "tuple"
                }
            ],
            "stateMutability": "payable",
            "type": "function"
        },
        {
            "inputs": [],
            "name": "contractOwner",
            "outputs": [
                {
                    "internalType": "address",
                    "name": "",
                    "type": "address"
                }
            ],
            "stateMutability": "view",
            "type": "function"
        },
        {
            "inputs": [],
            "name": "nft",
            "outputs": [
                {
                    "internalType": "contract LCNFT",
                    "name": "",
                    "type": "address"
                }
            ],
            "stateMutability": "view",
            "type": "function"
        },
        {
            "inputs": [
                {
                    "internalType": "address",
                    "name": "",
                    "type": "address"
                },
                {
                    "internalType": "uint256",
                    "name": "",
                    "type": "uint256"
                }
            ],
            "name": "orderLogs",
            "outputs": [
                {
                    "internalType": "uint256",
                    "name": "tokenId",
                    "type": "uint256"
                },
                {
                    "internalType": "address",
                    "name": "buyer",
                    "type": "address"
                },
                {
                    "internalType": "address",
                    "name": "seller",
                    "type": "address"
                },
                {
                    "internalType": "uint256",
                    "name": "totalPrice",
                    "type": "uint256"
                },
                {
                    "internalType": "uint256",
                    "name": "qty",
                    "type": "uint256"
                },
                {
                    "internalType": "uint256",
                    "name": "time",
                    "type": "uint256"
                }
            ],
            "stateMutability": "view",
            "type": "function"
        },
        {
            "inputs": [
                {
                    "internalType": "uint256",
                    "name": "tokenId",
                    "type": "uint256"
                },
                {
                    "internalType": "uint256",
                    "name": "_qty",
                    "type": "uint256"
                },
                {
                    "internalType": "uint256",
                    "name": "value",
                    "type": "uint256"
                }
            ],
            "name": "putTokenOnSale",
            "outputs": [
                {
                    "internalType": "bool",
                    "name": "",
                    "type": "bool"
                }
            ],
            "stateMutability": "nonpayable",
            "type": "function"
        },
        {
            "inputs": [
                {
                    "internalType": "uint256",
                    "name": "tokenId",
                    "type": "uint256"
                }
            ],
            "name": "removeTokenFromSale",
            "outputs": [
                {
                    "internalType": "bool",
                    "name": "",
                    "type": "bool"
                }
            ],
            "stateMutability": "nonpayable",
            "type": "function"
        },
        {
            "inputs": [
                {
                    "internalType": "uint256",
                    "name": "",
                    "type": "uint256"
                }
            ],
            "name": "saleItems",
            "outputs": [
                {
                    "internalType": "uint256",
                    "name": "tokenId",
                    "type": "uint256"
                },
                {
                    "internalType": "address",
                    "name": "owner",
                    "type": "address"
                },
                {
                    "internalType": "bool",
                    "name": "sold",
                    "type": "bool"
                },
                {
                    "internalType": "bool",
                    "name": "onSale",
                    "type": "bool"
                },
                {
                    "internalType": "uint256",
                    "name": "timeOnsale",
                    "type": "uint256"
                },
                {
                    "internalType": "uint256",
                    "name": "price",
                    "type": "uint256"
                },
                {
                    "internalType": "uint256",
                    "name": "qty",
                    "type": "uint256"
                }
            ],
            "stateMutability": "view",
            "type": "function"
        }
    ],
    "bytecode": "0x60806040523480156200001157600080fd5b5060405162002261380380620022618339818101604052810190620000379190620000d7565b80600360006101000a81548173ffffffffffffffffffffffffffffffffffffffff021916908373ffffffffffffffffffffffffffffffffffffffff16021790555033600160006101000a81548173ffffffffffffffffffffffffffffffffffffffff021916908373ffffffffffffffffffffffffffffffffffffffff1602179055505062000151565b600081519050620000d18162000137565b92915050565b600060208284031215620000ea57600080fd5b6000620000fa84828501620000c0565b91505092915050565b6000620001108262000117565b9050919050565b600073ffffffffffffffffffffffffffffffffffffffff82169050919050565b620001428162000103565b81146200014e57600080fd5b50565b61210080620001616000396000f3fe6080604052600436106100705760003560e01c8063815db4fc1161004e578063815db4fc1461010d5780638abf20921461014f578063ce606ee014610192578063e8cdea11146101bd57610070565b8063057466ea1461007557806347ccca02146100a557806365763ba0146100d0575b600080fd5b61008f600480360381019061008a9190611533565b6101fa565b60405161009c9190611c43565b60405180910390f35b3480156100b157600080fd5b506100ba610bb8565b6040516100c79190611ac8565b60405180910390f35b3480156100dc57600080fd5b506100f760048036038101906100f2919061156f565b610bde565b6040516101049190611aad565b60405180910390f35b34801561011957600080fd5b50610134600480360381019061012f919061147c565b610f21565b60405161014696959493929190611ca2565b60405180910390f35b34801561015b57600080fd5b50610176600480360381019061017191906114e1565b610fba565b6040516101899796959493929190611d3a565b60405180910390f35b34801561019e57600080fd5b506101a7611036565b6040516101b491906119e8565b60405180910390f35b3480156101c957600080fd5b506101e460048036038101906101df91906114e1565b61105c565b6040516101f19190611aad565b60405180910390f35b610202611388565b826002600082815260200190815260200160002060010160149054906101000a900460ff1615610267576040517f08c379a000000000000000000000000000000000000000000000000000000000815260040161025e90611b43565b60405180910390fd5b60006002600086815260200190815260200160002090506000816002015414156102c6576040517f08c379a00000000000000000000000000000000000000000000000000000000081526004016102bd90611c03565b60405180910390fd5b8060010160149054906101000a900460ff1615610318576040517f08c379a000000000000000000000000000000000000000000000000000000000815260040161030f90611b43565b60405180910390fd5b8060010160159054906101000a900460ff16610369576040517f08c379a000000000000000000000000000000000000000000000000000000000815260040161036090611be3565b60405180910390fd5b600360009054906101000a900473ffffffffffffffffffffffffffffffffffffffff1673ffffffffffffffffffffffffffffffffffffffff1663e985e9c58260010160009054906101000a900473ffffffffffffffffffffffffffffffffffffffff16306040518363ffffffff1660e01b81526004016103ea929190611a03565b60206040518083038186803b15801561040257600080fd5b505afa158015610416573d6000803e3d6000fd5b505050506040513d601f19601f8201168201806040525081019061043a91906114b8565b610479576040517f08c379a000000000000000000000000000000000000000000000000000000000815260040161047090611c23565b60405180910390fd5b600a84600360009054906101000a900473ffffffffffffffffffffffffffffffffffffffff1673ffffffffffffffffffffffffffffffffffffffff1662fdd58e33896040518363ffffffff1660e01b81526004016104d8929190611a84565b60206040518083038186803b1580156104f057600080fd5b505afa158015610504573d6000803e3d6000fd5b505050506040513d601f19601f82011682018060405250810190610528919061150a565b6105329190611ea6565b1115610573576040517f08c379a000000000000000000000000000000000000000000000000000000000815260040161056a90611b63565b60405180910390fd5b60006040518060c001604052808781526020013373ffffffffffffffffffffffffffffffffffffffff1681526020018360010160009054906101000a900473ffffffffffffffffffffffffffffffffffffffff1673ffffffffffffffffffffffffffffffffffffffff168152602001836003015481526020018681526020014281525090506000803373ffffffffffffffffffffffffffffffffffffffff1673ffffffffffffffffffffffffffffffffffffffff1681526020019081526020016000208190806001815401808255809150506001900390600052602060002090600602016000909190919091506000820151816000015560208201518160010160006101000a81548173ffffffffffffffffffffffffffffffffffffffff021916908373ffffffffffffffffffffffffffffffffffffffff16021790555060408201518160020160006101000a81548173ffffffffffffffffffffffffffffffffffffffff021916908373ffffffffffffffffffffffffffffffffffffffff160217905550606082015181600301556080820151816004015560a082015181600501555050670de0b6b3a764000082600301546107309190611f2d565b341015610772576040517f08c379a000000000000000000000000000000000000000000000000000000000815260040161076990611ba3565b60405180910390fd5b6000600360009054906101000a900473ffffffffffffffffffffffffffffffffffffffff1673ffffffffffffffffffffffffffffffffffffffff1663d48e638a886040518263ffffffff1660e01b81526004016107cf9190611c5e565b60206040518083038186803b1580156107e757600080fd5b505afa1580156107fb573d6000803e3d6000fd5b505050506040513d601f19601f8201168201806040525081019061081f9190611453565b90506000600360009054906101000a900473ffffffffffffffffffffffffffffffffffffffff1673ffffffffffffffffffffffffffffffffffffffff16631dc91b1d89846040518363ffffffff1660e01b8152600401610880929190611c79565b60206040518083038186803b15801561089857600080fd5b505afa1580156108ac573d6000803e3d6000fd5b505050506040513d601f19601f820116820180604052508101906108d0919061150a565b90506000606482346108e29190611f2d565b6108ec9190611efc565b9050600081346108fc9190611f87565b90506109098a60016111c0565b507fe3dd2b2c9bff67b6901cf76b5bd7f9ec8ec9814b12e1954cd86c380ebca7b81b8a8a3389600301548a60010160009054906101000a900473ffffffffffffffffffffffffffffffffffffffff168a60405161096b96959493929190611dd2565b60405180910390a160008660010160009054906101000a900473ffffffffffffffffffffffffffffffffffffffff1673ffffffffffffffffffffffffffffffffffffffff16826040516109bd906119d3565b60006040518083038185875af1925050503d80600081146109fa576040519150601f19603f3d011682016040523d82523d6000602084013e6109ff565b606091505b5050905080610a43576040517f08c379a0000000000000000000000000000000000000000000000000000000008152600401610a3a90611b83565b60405180910390fd5b60008573ffffffffffffffffffffffffffffffffffffffff1684604051610a69906119d3565b60006040518083038185875af1925050503d8060008114610aa6576040519150601f19603f3d011682016040523d82523d6000602084013e610aab565b606091505b5050905080610aef576040517f08c379a0000000000000000000000000000000000000000000000000000000008152600401610ae690611b23565b60405180910390fd5b600360009054906101000a900473ffffffffffffffffffffffffffffffffffffffff1673ffffffffffffffffffffffffffffffffffffffff1663f242432a8960010160009054906101000a900473ffffffffffffffffffffffffffffffffffffffff16338f8f6040518563ffffffff1660e01b8152600401610b749493929190611a2c565b600060405180830381600087803b158015610b8e57600080fd5b505af1158015610ba2573d6000803e3d6000fd5b5050505086995050505050505050505092915050565b600360009054906101000a900473ffffffffffffffffffffffffffffffffffffffff1681565b6000836000600360009054906101000a900473ffffffffffffffffffffffffffffffffffffffff1673ffffffffffffffffffffffffffffffffffffffff1662fdd58e33846040518363ffffffff1660e01b8152600401610c3f929190611a84565b60206040518083038186803b158015610c5757600080fd5b505afa158015610c6b573d6000803e3d6000fd5b505050506040513d601f19601f82011682018060405250810190610c8f919061150a565b1415610cd0576040517f08c379a0000000000000000000000000000000000000000000000000000000008152600401610cc790611bc3565b60405180910390fd5b83600360009054906101000a900473ffffffffffffffffffffffffffffffffffffffff1673ffffffffffffffffffffffffffffffffffffffff1662fdd58e33886040518363ffffffff1660e01b8152600401610d2d929190611a84565b60206040518083038186803b158015610d4557600080fd5b505afa158015610d59573d6000803e3d6000fd5b505050506040513d601f19601f82011682018060405250810190610d7d919061150a565b1015610dbe576040517f08c379a0000000000000000000000000000000000000000000000000000000008152600401610db590611ae3565b60405180910390fd5b60006040518060e001604052808781526020013373ffffffffffffffffffffffffffffffffffffffff16815260200160001515815260200160011515815260200142815260200185815260200186815250905080600260008881526020019081526020016000206000820151816000015560208201518160010160006101000a81548173ffffffffffffffffffffffffffffffffffffffff021916908373ffffffffffffffffffffffffffffffffffffffff16021790555060408201518160010160146101000a81548160ff02191690831515021790555060608201518160010160156101000a81548160ff0219169083151502179055506080820151816002015560a0820151816003015560c082015181600401559050507fab59eb7619f1df67855ba0663c21056737d8851740b8cb312989e16e08fda82e86858733604051610f0c9493929190611e34565b60405180910390a16001925050509392505050565b60006020528160005260406000208181548110610f3d57600080fd5b9060005260206000209060060201600091509150508060000154908060010160009054906101000a900473ffffffffffffffffffffffffffffffffffffffff16908060020160009054906101000a900473ffffffffffffffffffffffffffffffffffffffff16908060030154908060040154908060050154905086565b60026020528060005260406000206000915090508060000154908060010160009054906101000a900473ffffffffffffffffffffffffffffffffffffffff16908060010160149054906101000a900460ff16908060010160159054906101000a900460ff16908060020154908060030154908060040154905087565b600160009054906101000a900473ffffffffffffffffffffffffffffffffffffffff1681565b600080600360009054906101000a900473ffffffffffffffffffffffffffffffffffffffff1673ffffffffffffffffffffffffffffffffffffffff1662fdd58e33856040518363ffffffff1660e01b81526004016110bb929190611a84565b60206040518083038186803b1580156110d357600080fd5b505afa1580156110e7573d6000803e3d6000fd5b505050506040513d601f19601f8201168201806040525081019061110b919061150a565b141561114c576040517f08c379a000000000000000000000000000000000000000000000000000000000815260040161114390611bc3565b60405180910390fd5b60006002600084815260200190815260200160002060010160156101000a81548160ff0219169083151502179055507f1efc32969c293dd246740b88dbabd37c9c39bc21a52fb782e42db5335996fd28823360006040516111af93929190611d03565b60405180910390a160019050919050565b6000826002600082815260200190815260200160002060010160149054906101000a900460ff1615611227576040517f08c379a000000000000000000000000000000000000000000000000000000000815260040161121e90611b43565b60405180910390fd5b6000600360009054906101000a900473ffffffffffffffffffffffffffffffffffffffff1673ffffffffffffffffffffffffffffffffffffffff1662fdd58e33876040518363ffffffff1660e01b8152600401611285929190611a84565b60206040518083038186803b15801561129d57600080fd5b505afa1580156112b1573d6000803e3d6000fd5b505050506040513d601f19601f820116820180604052508101906112d5919061150a565b1415611316576040517f08c379a000000000000000000000000000000000000000000000000000000000815260040161130d90611b03565b60405180910390fd5b826002600086815260200190815260200160002060010160146101000a81548160ff0219169083151502179055507f50506a994b7357c017b6d6faacaef95f8e82fc1e4745b038a478935537985e598484604051611375929190611da9565b60405180910390a1600191505092915050565b6040518060c0016040528060008152602001600073ffffffffffffffffffffffffffffffffffffffff168152602001600073ffffffffffffffffffffffffffffffffffffffff1681526020016000815260200160008152602001600081525090565b6000813590506113f981612085565b92915050565b60008151905061140e81612085565b92915050565b6000815190506114238161209c565b92915050565b600081359050611438816120b3565b92915050565b60008151905061144d816120b3565b92915050565b60006020828403121561146557600080fd5b6000611473848285016113ff565b91505092915050565b6000806040838503121561148f57600080fd5b600061149d858286016113ea565b92505060206114ae85828601611429565b9150509250929050565b6000602082840312156114ca57600080fd5b60006114d884828501611414565b91505092915050565b6000602082840312156114f357600080fd5b600061150184828501611429565b91505092915050565b60006020828403121561151c57600080fd5b600061152a8482850161143e565b91505092915050565b6000806040838503121561154657600080fd5b600061155485828601611429565b925050602061156585828601611429565b9150509250929050565b60008060006060848603121561158457600080fd5b600061159286828701611429565b93505060206115a386828701611429565b92505060406115b486828701611429565b9150509250925092565b6115c781611fbb565b82525050565b6115d681611fbb565b82525050565b6115e581611fcd565b82525050565b6115f481612003565b82525050565b6000611607602083611e95565b91507f596f75206861766520696e73756666696369656e7420746f6b656e207174792e6000830152602082019050919050565b6000611647603783611e95565b91507f596f7520646f6e6f74206f776e2074686520746f6b656e20736f20796f75206360008301527f616e6e6f74206368616e676520746865207374617475730000000000000000006020830152604082019050919050565b60006116ad601683611e95565b91507f53656e6420746f2063726561746f72206661696c6564000000000000000000006000830152602082019050919050565b60006116ed601683611e95565b91507f546f6b656e20697320616c726561647920736f6c6421000000000000000000006000830152602082019050919050565b600061172d601883611e95565b91507f5075726368617365206c696d69742065786365656465642e00000000000000006000830152602082019050919050565b600061176d601583611e95565b91507f53656e6420746f2073656c6c6572206661696c656400000000000000000000006000830152602082019050919050565b60006117ad600083611e79565b9150600082019050919050565b60006117c7600083611e8a565b9150600082019050919050565b60006117e1601883611e95565b91507f496e73756666696369656e742065746865722076616c756500000000000000006000830152602082019050919050565b6000611821601783611e95565b91507f596f7520646f6e6f74206f776e2074686520746f6b656e0000000000000000006000830152602082019050919050565b6000611861601583611e95565b91507f546f6b656e206973206e6f74206f6e2073616c652100000000000000000000006000830152602082019050919050565b60006118a1601583611e95565b91507f546f6b656e206973206e6f742062757961626c652100000000000000000000006000830152602082019050919050565b60006118e1602183611e95565b91507f546f6b656e206973206e6f7420617070726f76656420746f207472616e66657260008301527f21000000000000000000000000000000000000000000000000000000000000006020830152604082019050919050565b60c08201600082015161195060008501826119b5565b50602082015161196360208501826115be565b50604082015161197660408501826115be565b50606082015161198960608501826119b5565b50608082015161199c60808501826119b5565b5060a08201516119af60a08501826119b5565b50505050565b6119be81611ff9565b82525050565b6119cd81611ff9565b82525050565b60006119de826117ba565b9150819050919050565b60006020820190506119fd60008301846115cd565b92915050565b6000604082019050611a1860008301856115cd565b611a2560208301846115cd565b9392505050565b600060a082019050611a4160008301876115cd565b611a4e60208301866115cd565b611a5b60408301856119c4565b611a6860608301846119c4565b8181036080830152611a79816117a0565b905095945050505050565b6000604082019050611a9960008301856115cd565b611aa660208301846119c4565b9392505050565b6000602082019050611ac260008301846115dc565b92915050565b6000602082019050611add60008301846115eb565b92915050565b60006020820190508181036000830152611afc816115fa565b9050919050565b60006020820190508181036000830152611b1c8161163a565b9050919050565b60006020820190508181036000830152611b3c816116a0565b9050919050565b60006020820190508181036000830152611b5c816116e0565b9050919050565b60006020820190508181036000830152611b7c81611720565b9050919050565b60006020820190508181036000830152611b9c81611760565b9050919050565b60006020820190508181036000830152611bbc816117d4565b9050919050565b60006020820190508181036000830152611bdc81611814565b9050919050565b60006020820190508181036000830152611bfc81611854565b9050919050565b60006020820190508181036000830152611c1c81611894565b9050919050565b60006020820190508181036000830152611c3c816118d4565b9050919050565b600060c082019050611c58600083018461193a565b92915050565b6000602082019050611c7360008301846119c4565b92915050565b6000604082019050611c8e60008301856119c4565b611c9b60208301846115cd565b9392505050565b600060c082019050611cb760008301896119c4565b611cc460208301886115cd565b611cd160408301876115cd565b611cde60608301866119c4565b611ceb60808301856119c4565b611cf860a08301846119c4565b979650505050505050565b6000606082019050611d1860008301866119c4565b611d2560208301856115cd565b611d3260408301846115dc565b949350505050565b600060e082019050611d4f600083018a6119c4565b611d5c60208301896115cd565b611d6960408301886115dc565b611d7660608301876115dc565b611d8360808301866119c4565b611d9060a08301856119c4565b611d9d60c08301846119c4565b98975050505050505050565b6000604082019050611dbe60008301856119c4565b611dcb60208301846115dc565b9392505050565b600061016082019050611de860008301896119c4565b611df560208301886119c4565b611e0260408301876115cd565b611e0f60608301866119c4565b611e1c60808301856115cd565b611e2960a083018461193a565b979650505050505050565b6000608082019050611e4960008301876119c4565b611e5660208301866119c4565b611e6360408301856119c4565b611e7060608301846115cd565b95945050505050565b600082825260208201905092915050565b600081905092915050565b600082825260208201905092915050565b6000611eb182611ff9565b9150611ebc83611ff9565b9250827fffffffffffffffffffffffffffffffffffffffffffffffffffffffffffffffff03821115611ef157611ef0612027565b5b828201905092915050565b6000611f0782611ff9565b9150611f1283611ff9565b925082611f2257611f21612056565b5b828204905092915050565b6000611f3882611ff9565b9150611f4383611ff9565b9250817fffffffffffffffffffffffffffffffffffffffffffffffffffffffffffffffff0483118215151615611f7c57611f7b612027565b5b828202905092915050565b6000611f9282611ff9565b9150611f9d83611ff9565b925082821015611fb057611faf612027565b5b828203905092915050565b6000611fc682611fd9565b9050919050565b60008115159050919050565b600073ffffffffffffffffffffffffffffffffffffffff82169050919050565b6000819050919050565b600061200e82612015565b9050919050565b600061202082611fd9565b9050919050565b7f4e487b7100000000000000000000000000000000000000000000000000000000600052601160045260246000fd5b7f4e487b7100000000000000000000000000000000000000000000000000000000600052601260045260246000fd5b61208e81611fbb565b811461209957600080fd5b50565b6120a581611fcd565b81146120b057600080fd5b50565b6120bc81611ff9565b81146120c757600080fd5b5056fea26469706673582212200715556d802673938b92d6d026bd3054c9078f4a08d26015db7b1445585f69f664736f6c63430008000033",
    "linkReferences": {},
    "deployedLinkReferences": {}
}