{
  "_format": "hh-sol-artifact-1",
  "contractName": "LCNFT",
  "sourceName": "contracts/LCNFT.sol",
  "abi": [
    {
      "inputs": [
        {
          "internalType": "string",
          "name": "_uri",
          "type": "string"
        }
      ],
      "stateMutability": "nonpayable",
      "type": "constructor"
    },
    {
      "anonymous": false,
      "inputs": [
        {
          "indexed": true,
          "internalType": "address",
          "name": "account",
          "type": "address"
        },
        {
          "indexed": true,
          "internalType": "address",
          "name": "operator",
          "type": "address"
        },
        {
          "indexed": false,
          "internalType": "bool",
          "name": "approved",
          "type": "bool"
        }
      ],
      "name": "ApprovalForAll",
      "type": "event"
    },
    {
      "anonymous": false,
      "inputs": [
        {
          "indexed": false,
          "internalType": "uint256",
          "name": "tokenId",
          "type": "uint256"
        },
        {
          "indexed": false,
          "internalType": "uint256",
          "name": "qty",
          "type": "uint256"
        },
        {
          "indexed": false,
          "internalType": "string",
          "name": "uri",
          "type": "string"
        },
        {
          "indexed": false,
          "internalType": "address",
          "name": "tokenOwner",
          "type": "address"
        },
        {
          "components": [
            {
              "internalType": "address",
              "name": "creator",
              "type": "address"
            },
            {
              "internalType": "uint256",
              "name": "royalty",
              "type": "uint256"
            },
            {
              "internalType": "address",
              "name": "nftContractAddress",
              "type": "address"
            },
            {
              "internalType": "uint256",
              "name": "nftTokenId",
              "type": "uint256"
            },
            {
              "internalType": "string",
              "name": "tokenURI",
              "type": "string"
            },
            {
              "internalType": "uint256",
              "name": "timeOfGenerate",
              "type": "uint256"
            }
          ],
          "indexed": false,
          "internalType": "struct LCNFT.nftGenerateInfo",
          "name": "newNFT",
          "type": "tuple"
        }
      ],
      "name": "Mint",
      "type": "event"
    },
    {
      "anonymous": false,
      "inputs": [
        {
          "indexed": true,
          "internalType": "address",
          "name": "operator",
          "type": "address"
        },
        {
          "indexed": true,
          "internalType": "address",
          "name": "from",
          "type": "address"
        },
        {
          "indexed": true,
          "internalType": "address",
          "name": "to",
          "type": "address"
        },
        {
          "indexed": false,
          "internalType": "uint256[]",
          "name": "ids",
          "type": "uint256[]"
        },
        {
          "indexed": false,
          "internalType": "uint256[]",
          "name": "values",
          "type": "uint256[]"
        }
      ],
      "name": "TransferBatch",
      "type": "event"
    },
    {
      "anonymous": false,
      "inputs": [
        {
          "indexed": true,
          "internalType": "address",
          "name": "operator",
          "type": "address"
        },
        {
          "indexed": true,
          "internalType": "address",
          "name": "from",
          "type": "address"
        },
        {
          "indexed": true,
          "internalType": "address",
          "name": "to",
          "type": "address"
        },
        {
          "indexed": false,
          "internalType": "uint256",
          "name": "id",
          "type": "uint256"
        },
        {
          "indexed": false,
          "internalType": "uint256",
          "name": "value",
          "type": "uint256"
        }
      ],
      "name": "TransferSingle",
      "type": "event"
    },
    {
      "anonymous": false,
      "inputs": [
        {
          "indexed": false,
          "internalType": "string",
          "name": "value",
          "type": "string"
        },
        {
          "indexed": true,
          "internalType": "uint256",
          "name": "id",
          "type": "uint256"
        }
      ],
      "name": "URI",
      "type": "event"
    },
    {
      "inputs": [
        {
          "internalType": "address",
          "name": "account",
          "type": "address"
        },
        {
          "internalType": "uint256",
          "name": "id",
          "type": "uint256"
        }
      ],
      "name": "balanceOf",
      "outputs": [
        {
          "internalType": "uint256",
          "name": "",
          "type": "uint256"
        }
      ],
      "stateMutability": "view",
      "type": "function"
    },
    {
      "inputs": [
        {
          "internalType": "address[]",
          "name": "accounts",
          "type": "address[]"
        },
        {
          "internalType": "uint256[]",
          "name": "ids",
          "type": "uint256[]"
        }
      ],
      "name": "balanceOfBatch",
      "outputs": [
        {
          "internalType": "uint256[]",
          "name": "",
          "type": "uint256[]"
        }
      ],
      "stateMutability": "view",
      "type": "function"
    },
    {
      "inputs": [
        {
          "internalType": "uint256",
          "name": "id",
          "type": "uint256"
        }
      ],
      "name": "getCreator",
      "outputs": [
        {
          "internalType": "address",
          "name": "",
          "type": "address"
        }
      ],
      "stateMutability": "view",
      "type": "function"
    },
    {
      "inputs": [
        {
          "internalType": "uint256",
          "name": "id",
          "type": "uint256"
        }
      ],
      "name": "getNFTDetails",
      "outputs": [
        {
          "components": [
            {
              "internalType": "address",
              "name": "creator",
              "type": "address"
            },
            {
              "internalType": "uint256",
              "name": "royalty",
              "type": "uint256"
            },
            {
              "internalType": "address",
              "name": "nftContractAddress",
              "type": "address"
            },
            {
              "internalType": "uint256",
              "name": "nftTokenId",
              "type": "uint256"
            },
            {
              "internalType": "string",
              "name": "tokenURI",
              "type": "string"
            },
            {
              "internalType": "uint256",
              "name": "timeOfGenerate",
              "type": "uint256"
            }
          ],
          "internalType": "struct LCNFT.nftGenerateInfo",
          "name": "",
          "type": "tuple"
        }
      ],
      "stateMutability": "view",
      "type": "function"
    },
    {
      "inputs": [
        {
          "internalType": "uint256",
          "name": "id",
          "type": "uint256"
        }
      ],
      "name": "getOwner",
      "outputs": [
        {
          "internalType": "address",
          "name": "",
          "type": "address"
        }
      ],
      "stateMutability": "view",
      "type": "function"
    },
    {
      "inputs": [
        {
          "internalType": "uint256",
          "name": "id",
          "type": "uint256"
        },
        {
          "internalType": "address",
          "name": "_creator",
          "type": "address"
        }
      ],
      "name": "getRoyalty",
      "outputs": [
        {
          "internalType": "uint256",
          "name": "",
          "type": "uint256"
        }
      ],
      "stateMutability": "view",
      "type": "function"
    },
    {
      "inputs": [
        {
          "internalType": "address",
          "name": "account",
          "type": "address"
        },
        {
          "internalType": "address",
          "name": "operator",
          "type": "address"
        }
      ],
      "name": "isApprovedForAll",
      "outputs": [
        {
          "internalType": "bool",
          "name": "",
          "type": "bool"
        }
      ],
      "stateMutability": "view",
      "type": "function"
    },
    {
      "inputs": [
        {
          "internalType": "uint256",
          "name": "amount",
          "type": "uint256"
        },
        {
          "internalType": "uint256",
          "name": "Royalty",
          "type": "uint256"
        },
        {
          "internalType": "string",
          "name": "newuri",
          "type": "string"
        }
      ],
      "name": "mint",
      "outputs": [
        {
          "components": [
            {
              "internalType": "address",
              "name": "creator",
              "type": "address"
            },
            {
              "internalType": "uint256",
              "name": "royalty",
              "type": "uint256"
            },
            {
              "internalType": "address",
              "name": "nftContractAddress",
              "type": "address"
            },
            {
              "internalType": "uint256",
              "name": "nftTokenId",
              "type": "uint256"
            },
            {
              "internalType": "string",
              "name": "tokenURI",
              "type": "string"
            },
            {
              "internalType": "uint256",
              "name": "timeOfGenerate",
              "type": "uint256"
            }
          ],
          "internalType": "struct LCNFT.nftGenerateInfo",
          "name": "",
          "type": "tuple"
        }
      ],
      "stateMutability": "nonpayable",
      "type": "function"
    },
    {
      "inputs": [
        {
          "internalType": "address",
          "name": "from",
          "type": "address"
        },
        {
          "internalType": "address",
          "name": "to",
          "type": "address"
        },
        {
          "internalType": "uint256[]",
          "name": "ids",
          "type": "uint256[]"
        },
        {
          "internalType": "uint256[]",
          "name": "amounts",
          "type": "uint256[]"
        },
        {
          "internalType": "bytes",
          "name": "data",
          "type": "bytes"
        }
      ],
      "name": "safeBatchTransferFrom",
      "outputs": [],
      "stateMutability": "nonpayable",
      "type": "function"
    },
    {
      "inputs": [
        {
          "internalType": "address",
          "name": "from",
          "type": "address"
        },
        {
          "internalType": "address",
          "name": "to",
          "type": "address"
        },
        {
          "internalType": "uint256",
          "name": "id",
          "type": "uint256"
        },
        {
          "internalType": "uint256",
          "name": "amount",
          "type": "uint256"
        },
        {
          "internalType": "bytes",
          "name": "data",
          "type": "bytes"
        }
      ],
      "name": "safeTransferFrom",
      "outputs": [],
      "stateMutability": "nonpayable",
      "type": "function"
    },
    {
      "inputs": [
        {
          "internalType": "address",
          "name": "operator",
          "type": "address"
        },
        {
          "internalType": "bool",
          "name": "approved",
          "type": "bool"
        }
      ],
      "name": "setApprovalForAll",
      "outputs": [],
      "stateMutability": "nonpayable",
      "type": "function"
    },
    {
      "inputs": [
        {
          "internalType": "bytes4",
          "name": "interfaceId",
          "type": "bytes4"
        }
      ],
      "name": "supportsInterface",
      "outputs": [
        {
          "internalType": "bool",
          "name": "",
          "type": "bool"
        }
      ],
      "stateMutability": "view",
      "type": "function"
    },
    {
      "inputs": [
        {
          "internalType": "uint256",
          "name": "",
          "type": "uint256"
        }
      ],
      "name": "uri",
      "outputs": [
        {
          "internalType": "string",
          "name": "",
          "type": "string"
        }
      ],
      "stateMutability": "view",
      "type": "function"
    }
  ],
  "bytecode": "0x60806040523480156200001157600080fd5b506040516200353f3803806200353f8339818101604052810190620000379190620001a0565b8062000049816200006260201b60201c565b506200005b816200006260201b60201c565b5062000316565b80600290805190602001906200007a9291906200007e565b5050565b8280546200008c9062000282565b90600052602060002090601f016020900481019282620000b05760008555620000fc565b82601f10620000cb57805160ff1916838001178555620000fc565b82800160010185558215620000fc579182015b82811115620000fb578251825591602001919060010190620000de565b5b5090506200010b91906200010f565b5090565b5b808211156200012a57600081600090555060010162000110565b5090565b6000620001456200013f8462000219565b620001e5565b9050828152602081018484840111156200015e57600080fd5b6200016b8482856200024c565b509392505050565b600082601f8301126200018557600080fd5b8151620001978482602086016200012e565b91505092915050565b600060208284031215620001b357600080fd5b600082015167ffffffffffffffff811115620001ce57600080fd5b620001dc8482850162000173565b91505092915050565b6000604051905081810181811067ffffffffffffffff821117156200020f576200020e620002e7565b5b8060405250919050565b600067ffffffffffffffff821115620002375762000236620002e7565b5b601f19601f8301169050602081019050919050565b60005b838110156200026c5780820151818401526020810190506200024f565b838111156200027c576000848401525b50505050565b600060028204905060018216806200029b57607f821691505b60208210811415620002b257620002b1620002b8565b5b50919050565b7f4e487b7100000000000000000000000000000000000000000000000000000000600052602260045260246000fd5b7f4e487b7100000000000000000000000000000000000000000000000000000000600052604160045260246000fd5b61321980620003266000396000f3fe608060405234801561001057600080fd5b50600436106100ce5760003560e01c806382260f351161008c578063c6e64e5311610066578063c6e64e531461025b578063d48e638a1461028b578063e985e9c5146102bb578063f242432a146102eb576100ce565b806382260f35146101df578063a22cb4651461020f578063c41a360a1461022b576100ce565b8062fdd58e146100d357806301ffc9a7146101035780630e89341c146101335780631dc91b1d146101635780632eb2c2d6146101935780634e1273f4146101af575b600080fd5b6100ed60048036038101906100e8919061217d565b610307565b6040516100fa9190612c8f565b60405180910390f35b61011d60048036038101906101189190612225565b6103d0565b60405161012a9190612ad0565b60405180910390f35b61014d60048036038101906101489190612277565b6104b2565b60405161015a9190612aeb565b60405180910390f35b61017d600480360381019061017891906122a0565b610546565b60405161018a9190612c8f565b60405180910390f35b6101ad60048036038101906101a89190611ff3565b6105a1565b005b6101c960048036038101906101c491906121b9565b610642565b6040516101d69190612a77565b60405180910390f35b6101f960048036038101906101f49190612277565b6107f3565b6040516102069190612c6d565b60405180910390f35b61022960048036038101906102249190612141565b61097c565b005b61024560048036038101906102409190612277565b610afd565b604051610252919061299a565b60405180910390f35b610275600480360381019061027091906122dc565b610b3a565b6040516102829190612c6d565b60405180910390f35b6102a560048036038101906102a09190612277565b610e32565b6040516102b2919061299a565b60405180910390f35b6102d560048036038101906102d09190611fb7565b610e6f565b6040516102e29190612ad0565b60405180910390f35b610305600480360381019061030091906120b2565b610f03565b005b60008073ffffffffffffffffffffffffffffffffffffffff168373ffffffffffffffffffffffffffffffffffffffff161415610378576040517f08c379a000000000000000000000000000000000000000000000000000000000815260040161036f90612b4d565b60405180910390fd5b60008083815260200190815260200160002060008473ffffffffffffffffffffffffffffffffffffffff1673ffffffffffffffffffffffffffffffffffffffff16815260200190815260200160002054905092915050565b60007fd9b67a26000000000000000000000000000000000000000000000000000000007bffffffffffffffffffffffffffffffffffffffffffffffffffffffff1916827bffffffffffffffffffffffffffffffffffffffffffffffffffffffff1916148061049b57507f0e89341c000000000000000000000000000000000000000000000000000000007bffffffffffffffffffffffffffffffffffffffffffffffffffffffff1916827bffffffffffffffffffffffffffffffffffffffffffffffffffffffff1916145b806104ab57506104aa82610fa4565b5b9050919050565b6060600280546104c190612fab565b80601f01602080910402602001604051908101604052809291908181526020018280546104ed90612fab565b801561053a5780601f1061050f5761010080835404028352916020019161053a565b820191906000526020600020905b81548152906001019060200180831161051d57829003601f168201915b50505050509050919050565b60006007600084815260200190815260200160002060008373ffffffffffffffffffffffffffffffffffffffff1673ffffffffffffffffffffffffffffffffffffffff16815260200190815260200160002054905092915050565b6105a961100e565b73ffffffffffffffffffffffffffffffffffffffff168573ffffffffffffffffffffffffffffffffffffffff1614806105ef57506105ee856105e961100e565b610e6f565b5b61062e576040517f08c379a000000000000000000000000000000000000000000000000000000000815260040161062590612bad565b60405180910390fd5b61063b8585858585611016565b5050505050565b60608151835114610688576040517f08c379a000000000000000000000000000000000000000000000000000000000815260040161067f90612c0d565b60405180910390fd5b6000835167ffffffffffffffff8111156106cb577f4e487b7100000000000000000000000000000000000000000000000000000000600052604160045260246000fd5b6040519080825280602002602001820160405280156106f95781602001602082028036833780820191505090505b50905060005b84518110156107e857610792858281518110610744577f4e487b7100000000000000000000000000000000000000000000000000000000600052603260045260246000fd5b6020026020010151858381518110610785577f4e487b7100000000000000000000000000000000000000000000000000000000600052603260045260246000fd5b6020026020010151610307565b8282815181106107cb577f4e487b7100000000000000000000000000000000000000000000000000000000600052603260045260246000fd5b602002602001018181525050806107e190612fdd565b90506106ff565b508091505092915050565b6107fb611c4d565b600460008381526020019081526020016000206040518060c00160405290816000820160009054906101000a900473ffffffffffffffffffffffffffffffffffffffff1673ffffffffffffffffffffffffffffffffffffffff1673ffffffffffffffffffffffffffffffffffffffff168152602001600182015481526020016002820160009054906101000a900473ffffffffffffffffffffffffffffffffffffffff1673ffffffffffffffffffffffffffffffffffffffff1673ffffffffffffffffffffffffffffffffffffffff168152602001600382015481526020016004820180546108e990612fab565b80601f016020809104026020016040519081016040528092919081815260200182805461091590612fab565b80156109625780601f1061093757610100808354040283529160200191610962565b820191906000526020600020905b81548152906001019060200180831161094557829003601f168201915b505050505081526020016005820154815250509050919050565b8173ffffffffffffffffffffffffffffffffffffffff1661099b61100e565b73ffffffffffffffffffffffffffffffffffffffff1614156109f2576040517f08c379a00000000000000000000000000000000000000000000000000000000081526004016109e990612bed565b60405180910390fd5b80600160006109ff61100e565b73ffffffffffffffffffffffffffffffffffffffff1673ffffffffffffffffffffffffffffffffffffffff16815260200190815260200160002060008473ffffffffffffffffffffffffffffffffffffffff1673ffffffffffffffffffffffffffffffffffffffff16815260200190815260200160002060006101000a81548160ff0219169083151502179055508173ffffffffffffffffffffffffffffffffffffffff16610aac61100e565b73ffffffffffffffffffffffffffffffffffffffff167f17307eab39ab6107e8899845ad3d59bd9653f200f220920489ca2b5937696c3183604051610af19190612ad0565b60405180910390a35050565b60006006600083815260200190815260200160002060009054906101000a900473ffffffffffffffffffffffffffffffffffffffff169050919050565b610b42611c4d565b6000610b4e6003611376565b9050610b5983611384565b60006040518060c001604052803373ffffffffffffffffffffffffffffffffffffffff1681526020018681526020013073ffffffffffffffffffffffffffffffffffffffff168152602001838152602001858152602001428152509050806004600084815260200190815260200160002060008201518160000160006101000a81548173ffffffffffffffffffffffffffffffffffffffff021916908373ffffffffffffffffffffffffffffffffffffffff1602179055506020820151816001015560408201518160020160006101000a81548173ffffffffffffffffffffffffffffffffffffffff021916908373ffffffffffffffffffffffffffffffffffffffff160217905550606082015181600301556080820151816004019080519060200190610c88929190611caf565b5060a08201518160050155905050336005600084815260200190815260200160002060006101000a81548173ffffffffffffffffffffffffffffffffffffffff021916908373ffffffffffffffffffffffffffffffffffffffff160217905550336006600084815260200190815260200160002060006101000a81548173ffffffffffffffffffffffffffffffffffffffff021916908373ffffffffffffffffffffffffffffffffffffffff160217905550846007600084815260200190815260200160002060003373ffffffffffffffffffffffffffffffffffffffff1673ffffffffffffffffffffffffffffffffffffffff168152602001908152602001600020819055507f2eb6bf138855b2776925d6c7789db6718d53dd4af91645bf2dc3ed40dbb4588b8287866006600087815260200190815260200160002060009054906101000a900473ffffffffffffffffffffffffffffffffffffffff1685604051610df9959493929190612cd3565b60405180910390a1610e0b600361139e565b610e26338388604051806020016040528060008152506113b4565b80925050509392505050565b60006005600083815260200190815260200160002060009054906101000a900473ffffffffffffffffffffffffffffffffffffffff169050919050565b6000600160008473ffffffffffffffffffffffffffffffffffffffff1673ffffffffffffffffffffffffffffffffffffffff16815260200190815260200160002060008373ffffffffffffffffffffffffffffffffffffffff1673ffffffffffffffffffffffffffffffffffffffff16815260200190815260200160002060009054906101000a900460ff16905092915050565b610f0b61100e565b73ffffffffffffffffffffffffffffffffffffffff168573ffffffffffffffffffffffffffffffffffffffff161480610f515750610f5085610f4b61100e565b610e6f565b5b610f90576040517f08c379a0000000000000000000000000000000000000000000000000000000008152600401610f8790612b6d565b60405180910390fd5b610f9d858585858561154a565b5050505050565b60007f01ffc9a7000000000000000000000000000000000000000000000000000000007bffffffffffffffffffffffffffffffffffffffffffffffffffffffff1916827bffffffffffffffffffffffffffffffffffffffffffffffffffffffff1916149050919050565b600033905090565b815183511461105a576040517f08c379a000000000000000000000000000000000000000000000000000000000815260040161105190612c2d565b60405180910390fd5b600073ffffffffffffffffffffffffffffffffffffffff168473ffffffffffffffffffffffffffffffffffffffff1614156110ca576040517f08c379a00000000000000000000000000000000000000000000000000000000081526004016110c190612b8d565b60405180910390fd5b60006110d461100e565b90506110e48187878787876117cc565b60005b84518110156112e157600085828151811061112b577f4e487b7100000000000000000000000000000000000000000000000000000000600052603260045260246000fd5b602002602001015190506000858381518110611170577f4e487b7100000000000000000000000000000000000000000000000000000000600052603260045260246000fd5b60200260200101519050600080600084815260200190815260200160002060008b73ffffffffffffffffffffffffffffffffffffffff1673ffffffffffffffffffffffffffffffffffffffff16815260200190815260200160002054905081811015611211576040517f08c379a000000000000000000000000000000000000000000000000000000000815260040161120890612bcd565b60405180910390fd5b81810360008085815260200190815260200160002060008c73ffffffffffffffffffffffffffffffffffffffff1673ffffffffffffffffffffffffffffffffffffffff168152602001908152602001600020819055508160008085815260200190815260200160002060008b73ffffffffffffffffffffffffffffffffffffffff1673ffffffffffffffffffffffffffffffffffffffff16815260200190815260200160002060008282546112c69190612e9f565b92505081905550505050806112da90612fdd565b90506110e7565b508473ffffffffffffffffffffffffffffffffffffffff168673ffffffffffffffffffffffffffffffffffffffff168273ffffffffffffffffffffffffffffffffffffffff167f4a39dc06d4c0dbc64b70af90fd698a233a518aa5d07e595d983b8c0526c8f7fb8787604051611358929190612a99565b60405180910390a461136e8187878787876117d4565b505050505050565b600081600001549050919050565b806002908051906020019061139a929190611caf565b5050565b6001816000016000828254019250508190555050565b600073ffffffffffffffffffffffffffffffffffffffff168473ffffffffffffffffffffffffffffffffffffffff161415611424576040517f08c379a000000000000000000000000000000000000000000000000000000000815260040161141b90612c4d565b60405180910390fd5b600061142e61100e565b905061144f81600087611440886119a4565b611449886119a4565b876117cc565b8260008086815260200190815260200160002060008773ffffffffffffffffffffffffffffffffffffffff1673ffffffffffffffffffffffffffffffffffffffff16815260200190815260200160002060008282546114ae9190612e9f565b925050819055508473ffffffffffffffffffffffffffffffffffffffff16600073ffffffffffffffffffffffffffffffffffffffff168273ffffffffffffffffffffffffffffffffffffffff167fc3d58168c5ae7397731d063d5bbf3d657854427343f4c083240f7aacaa2d0f62878760405161152c929190612caa565b60405180910390a461154381600087878787611a6a565b5050505050565b600073ffffffffffffffffffffffffffffffffffffffff168473ffffffffffffffffffffffffffffffffffffffff1614156115ba576040517f08c379a00000000000000000000000000000000000000000000000000000000081526004016115b190612b8d565b60405180910390fd5b60006115c461100e565b90506115e48187876115d5886119a4565b6115de886119a4565b876117cc565b600080600086815260200190815260200160002060008873ffffffffffffffffffffffffffffffffffffffff1673ffffffffffffffffffffffffffffffffffffffff1681526020019081526020016000205490508381101561167b576040517f08c379a000000000000000000000000000000000000000000000000000000000815260040161167290612bcd565b60405180910390fd5b83810360008087815260200190815260200160002060008973ffffffffffffffffffffffffffffffffffffffff1673ffffffffffffffffffffffffffffffffffffffff168152602001908152602001600020819055508360008087815260200190815260200160002060008873ffffffffffffffffffffffffffffffffffffffff1673ffffffffffffffffffffffffffffffffffffffff16815260200190815260200160002060008282546117309190612e9f565b925050819055508573ffffffffffffffffffffffffffffffffffffffff168773ffffffffffffffffffffffffffffffffffffffff168373ffffffffffffffffffffffffffffffffffffffff167fc3d58168c5ae7397731d063d5bbf3d657854427343f4c083240f7aacaa2d0f6288886040516117ad929190612caa565b60405180910390a46117c3828888888888611a6a565b50505050505050565b505050505050565b6117f38473ffffffffffffffffffffffffffffffffffffffff16611c3a565b1561199c578373ffffffffffffffffffffffffffffffffffffffff1663bc197c8187878686866040518663ffffffff1660e01b81526004016118399594939291906129b5565b602060405180830381600087803b15801561185357600080fd5b505af192505050801561188457506040513d601f19601f82011682018060405250810190611881919061224e565b60015b611913576118906130d1565b8061189b57506118d8565b806040517f08c379a00000000000000000000000000000000000000000000000000000000081526004016118cf9190612aeb565b60405180910390fd5b6040517f08c379a000000000000000000000000000000000000000000000000000000000815260040161190a90612b0d565b60405180910390fd5b63bc197c8160e01b7bffffffffffffffffffffffffffffffffffffffffffffffffffffffff1916817bffffffffffffffffffffffffffffffffffffffffffffffffffffffff19161461199a576040517f08c379a000000000000000000000000000000000000000000000000000000000815260040161199190612b2d565b60405180910390fd5b505b505050505050565b60606000600167ffffffffffffffff8111156119e9577f4e487b7100000000000000000000000000000000000000000000000000000000600052604160045260246000fd5b604051908082528060200260200182016040528015611a175781602001602082028036833780820191505090505b5090508281600081518110611a55577f4e487b7100000000000000000000000000000000000000000000000000000000600052603260045260246000fd5b60200260200101818152505080915050919050565b611a898473ffffffffffffffffffffffffffffffffffffffff16611c3a565b15611c32578373ffffffffffffffffffffffffffffffffffffffff1663f23a6e6187878686866040518663ffffffff1660e01b8152600401611acf959493929190612a1d565b602060405180830381600087803b158015611ae957600080fd5b505af1925050508015611b1a57506040513d601f19601f82011682018060405250810190611b17919061224e565b60015b611ba957611b266130d1565b80611b315750611b6e565b806040517f08c379a0000000000000000000000000000000000000000000000000000000008152600401611b659190612aeb565b60405180910390fd5b6040517f08c379a0000000000000000000000000000000000000000000000000000000008152600401611ba090612b0d565b60405180910390fd5b63f23a6e6160e01b7bffffffffffffffffffffffffffffffffffffffffffffffffffffffff1916817bffffffffffffffffffffffffffffffffffffffffffffffffffffffff191614611c30576040517f08c379a0000000000000000000000000000000000000000000000000000000008152600401611c2790612b2d565b60405180910390fd5b505b505050505050565b600080823b905060008111915050919050565b6040518060c00160405280600073ffffffffffffffffffffffffffffffffffffffff16815260200160008152602001600073ffffffffffffffffffffffffffffffffffffffff1681526020016000815260200160608152602001600081525090565b828054611cbb90612fab565b90600052602060002090601f016020900481019282611cdd5760008555611d24565b82601f10611cf657805160ff1916838001178555611d24565b82800160010185558215611d24579182015b82811115611d23578251825591602001919060010190611d08565b5b509050611d319190611d35565b5090565b5b80821115611d4e576000816000905550600101611d36565b5090565b6000611d65611d6084612d65565b612d34565b90508083825260208201905082856020860282011115611d8457600080fd5b60005b85811015611db45781611d9a8882611ea6565b845260208401935060208301925050600181019050611d87565b5050509392505050565b6000611dd1611dcc84612d91565b612d34565b90508083825260208201905082856020860282011115611df057600080fd5b60005b85811015611e205781611e068882611fa2565b845260208401935060208301925050600181019050611df3565b5050509392505050565b6000611e3d611e3884612dbd565b612d34565b905082815260208101848484011115611e5557600080fd5b611e60848285612f69565b509392505050565b6000611e7b611e7684612ded565b612d34565b905082815260208101848484011115611e9357600080fd5b611e9e848285612f69565b509392505050565b600081359050611eb581613187565b92915050565b600082601f830112611ecc57600080fd5b8135611edc848260208601611d52565b91505092915050565b600082601f830112611ef657600080fd5b8135611f06848260208601611dbe565b91505092915050565b600081359050611f1e8161319e565b92915050565b600081359050611f33816131b5565b92915050565b600081519050611f48816131b5565b92915050565b600082601f830112611f5f57600080fd5b8135611f6f848260208601611e2a565b91505092915050565b600082601f830112611f8957600080fd5b8135611f99848260208601611e68565b91505092915050565b600081359050611fb1816131cc565b92915050565b60008060408385031215611fca57600080fd5b6000611fd885828601611ea6565b9250506020611fe985828601611ea6565b9150509250929050565b600080600080600060a0868803121561200b57600080fd5b600061201988828901611ea6565b955050602061202a88828901611ea6565b945050604086013567ffffffffffffffff81111561204757600080fd5b61205388828901611ee5565b935050606086013567ffffffffffffffff81111561207057600080fd5b61207c88828901611ee5565b925050608086013567ffffffffffffffff81111561209957600080fd5b6120a588828901611f4e565b9150509295509295909350565b600080600080600060a086880312156120ca57600080fd5b60006120d888828901611ea6565b95505060206120e988828901611ea6565b94505060406120fa88828901611fa2565b935050606061210b88828901611fa2565b925050608086013567ffffffffffffffff81111561212857600080fd5b61213488828901611f4e565b9150509295509295909350565b6000806040838503121561215457600080fd5b600061216285828601611ea6565b925050602061217385828601611f0f565b9150509250929050565b6000806040838503121561219057600080fd5b600061219e85828601611ea6565b92505060206121af85828601611fa2565b9150509250929050565b600080604083850312156121cc57600080fd5b600083013567ffffffffffffffff8111156121e657600080fd5b6121f285828601611ebb565b925050602083013567ffffffffffffffff81111561220f57600080fd5b61221b85828601611ee5565b9150509250929050565b60006020828403121561223757600080fd5b600061224584828501611f24565b91505092915050565b60006020828403121561226057600080fd5b600061226e84828501611f39565b91505092915050565b60006020828403121561228957600080fd5b600061229784828501611fa2565b91505092915050565b600080604083850312156122b357600080fd5b60006122c185828601611fa2565b92505060206122d285828601611ea6565b9150509250929050565b6000806000606084860312156122f157600080fd5b60006122ff86828701611fa2565b935050602061231086828701611fa2565b925050604084013567ffffffffffffffff81111561232d57600080fd5b61233986828701611f78565b9150509250925092565b600061234f838361297c565b60208301905092915050565b61236481612ef5565b82525050565b61237381612ef5565b82525050565b600061238482612e2d565b61238e8185612e5b565b935061239983612e1d565b8060005b838110156123ca5781516123b18882612343565b97506123bc83612e4e565b92505060018101905061239d565b5085935050505092915050565b6123e081612f07565b82525050565b60006123f182612e38565b6123fb8185612e6c565b935061240b818560208601612f78565b612414816130b3565b840191505092915050565b600061242a82612e43565b6124348185612e7d565b9350612444818560208601612f78565b61244d816130b3565b840191505092915050565b600061246382612e43565b61246d8185612e8e565b935061247d818560208601612f78565b612486816130b3565b840191505092915050565b600061249e603483612e8e565b91507f455243313135353a207472616e7366657220746f206e6f6e204552433131353560008301527f526563656976657220696d706c656d656e7465720000000000000000000000006020830152604082019050919050565b6000612504602883612e8e565b91507f455243313135353a204552433131353552656365697665722072656a6563746560008301527f6420746f6b656e730000000000000000000000000000000000000000000000006020830152604082019050919050565b600061256a602b83612e8e565b91507f455243313135353a2062616c616e636520717565727920666f7220746865207a60008301527f65726f20616464726573730000000000000000000000000000000000000000006020830152604082019050919050565b60006125d0602983612e8e565b91507f455243313135353a2063616c6c6572206973206e6f74206f776e6572206e6f7260008301527f20617070726f76656400000000000000000000000000000000000000000000006020830152604082019050919050565b6000612636602583612e8e565b91507f455243313135353a207472616e7366657220746f20746865207a65726f20616460008301527f64726573730000000000000000000000000000000000000000000000000000006020830152604082019050919050565b600061269c603283612e8e565b91507f455243313135353a207472616e736665722063616c6c6572206973206e6f742060008301527f6f776e6572206e6f7220617070726f76656400000000000000000000000000006020830152604082019050919050565b6000612702602a83612e8e565b91507f455243313135353a20696e73756666696369656e742062616c616e636520666f60008301527f72207472616e73666572000000000000000000000000000000000000000000006020830152604082019050919050565b6000612768602983612e8e565b91507f455243313135353a2073657474696e6720617070726f76616c2073746174757360008301527f20666f722073656c6600000000000000000000000000000000000000000000006020830152604082019050919050565b60006127ce602983612e8e565b91507f455243313135353a206163636f756e747320616e6420696473206c656e67746860008301527f206d69736d6174636800000000000000000000000000000000000000000000006020830152604082019050919050565b6000612834602883612e8e565b91507f455243313135353a2069647320616e6420616d6f756e7473206c656e6774682060008301527f6d69736d617463680000000000000000000000000000000000000000000000006020830152604082019050919050565b600061289a602183612e8e565b91507f455243313135353a206d696e7420746f20746865207a65726f2061646472657360008301527f73000000000000000000000000000000000000000000000000000000000000006020830152604082019050919050565b600060c08301600083015161290b600086018261235b565b50602083015161291e602086018261297c565b506040830151612931604086018261235b565b506060830151612944606086018261297c565b506080830151848203608086015261295c828261241f565b91505060a083015161297160a086018261297c565b508091505092915050565b61298581612f5f565b82525050565b61299481612f5f565b82525050565b60006020820190506129af600083018461236a565b92915050565b600060a0820190506129ca600083018861236a565b6129d7602083018761236a565b81810360408301526129e98186612379565b905081810360608301526129fd8185612379565b90508181036080830152612a1181846123e6565b90509695505050505050565b600060a082019050612a32600083018861236a565b612a3f602083018761236a565b612a4c604083018661298b565b612a59606083018561298b565b8181036080830152612a6b81846123e6565b90509695505050505050565b60006020820190508181036000830152612a918184612379565b905092915050565b60006040820190508181036000830152612ab38185612379565b90508181036020830152612ac78184612379565b90509392505050565b6000602082019050612ae560008301846123d7565b92915050565b60006020820190508181036000830152612b058184612458565b905092915050565b60006020820190508181036000830152612b2681612491565b9050919050565b60006020820190508181036000830152612b46816124f7565b9050919050565b60006020820190508181036000830152612b668161255d565b9050919050565b60006020820190508181036000830152612b86816125c3565b9050919050565b60006020820190508181036000830152612ba681612629565b9050919050565b60006020820190508181036000830152612bc68161268f565b9050919050565b60006020820190508181036000830152612be6816126f5565b9050919050565b60006020820190508181036000830152612c068161275b565b9050919050565b60006020820190508181036000830152612c26816127c1565b9050919050565b60006020820190508181036000830152612c4681612827565b9050919050565b60006020820190508181036000830152612c668161288d565b9050919050565b60006020820190508181036000830152612c8781846128f3565b905092915050565b6000602082019050612ca4600083018461298b565b92915050565b6000604082019050612cbf600083018561298b565b612ccc602083018461298b565b9392505050565b600060a082019050612ce8600083018861298b565b612cf5602083018761298b565b8181036040830152612d078186612458565b9050612d16606083018561236a565b8181036080830152612d2881846128f3565b90509695505050505050565b6000604051905081810181811067ffffffffffffffff82111715612d5b57612d5a613084565b5b8060405250919050565b600067ffffffffffffffff821115612d8057612d7f613084565b5b602082029050602081019050919050565b600067ffffffffffffffff821115612dac57612dab613084565b5b602082029050602081019050919050565b600067ffffffffffffffff821115612dd857612dd7613084565b5b601f19601f8301169050602081019050919050565b600067ffffffffffffffff821115612e0857612e07613084565b5b601f19601f8301169050602081019050919050565b6000819050602082019050919050565b600081519050919050565b600081519050919050565b600081519050919050565b6000602082019050919050565b600082825260208201905092915050565b600082825260208201905092915050565b600082825260208201905092915050565b600082825260208201905092915050565b6000612eaa82612f5f565b9150612eb583612f5f565b9250827fffffffffffffffffffffffffffffffffffffffffffffffffffffffffffffffff03821115612eea57612ee9613026565b5b828201905092915050565b6000612f0082612f3f565b9050919050565b60008115159050919050565b60007fffffffff0000000000000000000000000000000000000000000000000000000082169050919050565b600073ffffffffffffffffffffffffffffffffffffffff82169050919050565b6000819050919050565b82818337600083830152505050565b60005b83811015612f96578082015181840152602081019050612f7b565b83811115612fa5576000848401525b50505050565b60006002820490506001821680612fc357607f821691505b60208210811415612fd757612fd6613055565b5b50919050565b6000612fe882612f5f565b91507fffffffffffffffffffffffffffffffffffffffffffffffffffffffffffffffff82141561301b5761301a613026565b5b600182019050919050565b7f4e487b7100000000000000000000000000000000000000000000000000000000600052601160045260246000fd5b7f4e487b7100000000000000000000000000000000000000000000000000000000600052602260045260246000fd5b7f4e487b7100000000000000000000000000000000000000000000000000000000600052604160045260246000fd5b6000601f19601f8301169050919050565b60008160e01c9050919050565b600060443d10156130e157613184565b60046000803e6130f26000516130c4565b6308c379a081146131035750613184565b60405160043d036004823e80513d602482011167ffffffffffffffff8211171561312f57505050613184565b808201805167ffffffffffffffff81111561314e575050505050613184565b8060208301013d850181111561316957505050505050613184565b613172826130b3565b60208401016040528296505050505050505b90565b61319081612ef5565b811461319b57600080fd5b50565b6131a781612f07565b81146131b257600080fd5b50565b6131be81612f13565b81146131c957600080fd5b50565b6131d581612f5f565b81146131e057600080fd5b5056fea2646970667358221220de29380f1cadf2547d99879727f7aee7b47568d537010f7176f8676dbdb543d364736f6c63430008000033",
  "linkReferences": {},
  "deployedLinkReferences": {}
}